{"contracts/token.sol":{"InsuranceClaim":{"abi":[{"inputs":[{"internalType":"uint256","name":"_id","type":"uint256"},{"internalType":"bytes32","name":"_documentHash","type":"bytes32"}],"name":"addClaim","outputs":[],"stateMutability":"nonpayable","type":"function"},{"inputs":[{"internalType":"uint256","name":"","type":"uint256"}],"name":"claims","outputs":[{"internalType":"uint256","name":"id","type":"uint256"},{"internalType":"address","name":"claimant","type":"address"},{"internalType":"bytes32","name":"documentHash","type":"bytes32"},{"internalType":"bool","name":"isVerified","type":"bool"}],"stateMutability":"view","type":"function"},{"inputs":[{"internalType":"uint256","name":"_id","type":"uint256"}],"name":"verifyClaim","outputs":[],"stateMutability":"nonpayable","type":"function"}],"evm":{"bytecode":{"linkReferences":{},"object":"608060405234801561001057600080fd5b5061049b806100206000396000f3fe608060405234801561001057600080fd5b50600436106100415760003560e01c8063a888c2cd14610046578063c0d7e2b614610079578063d2f51fee14610095575b600080fd5b610060600480360381019061005b919061028e565b6100b1565b604051610070949392919061038f565b60405180910390f35b610093600480360381019061008e919061028e565b61010e565b005b6100af60048036038101906100aa91906102b7565b610196565b005b60006020528060005260406000206000915090508060000154908060010160009054906101000a900473ffffffffffffffffffffffffffffffffffffffff16908060020154908060030160009054906101000a900460ff16905084565b806000808381526020019081526020016000206000015414610165576040517f08c379a000000000000000000000000000000000000000000000000000000000815260040161015c9061036f565b60405180910390fd5b600160008083815260200190815260200160002060030160006101000a81548160ff02191690831515021790555050565b60405180608001604052808381526020013373ffffffffffffffffffffffffffffffffffffffff168152602001828152602001600015158152506000808481526020019081526020016000206000820151816000015560208201518160010160006101000a81548173ffffffffffffffffffffffffffffffffffffffff021916908373ffffffffffffffffffffffffffffffffffffffff1602179055506040820151816002015560608201518160030160006101000a81548160ff0219169083151502179055509050505050565b60008135905061027381610437565b92915050565b6000813590506102888161044e565b92915050565b6000602082840312156102a057600080fd5b60006102ae84828501610279565b91505092915050565b600080604083850312156102ca57600080fd5b60006102d885828601610279565b92505060206102e985828601610264565b9150509250929050565b6102fc816103e5565b82525050565b61030b816103f7565b82525050565b61031a81610403565b82525050565b600061032d6015836103d4565b91507f436c61696d20646f6573206e6f742065786973742e00000000000000000000006000830152602082019050919050565b6103698161042d565b82525050565b6000602082019050818103600083015261038881610320565b9050919050565b60006080820190506103a46000830187610360565b6103b160208301866102f3565b6103be6040830185610311565b6103cb6060830184610302565b95945050505050565b600082825260208201905092915050565b60006103f08261040d565b9050919050565b60008115159050919050565b6000819050919050565b600073ffffffffffffffffffffffffffffffffffffffff82169050919050565b6000819050919050565b61044081610403565b811461044b57600080fd5b50565b6104578161042d565b811461046257600080fd5b5056fea264697066735822122060ef7a1db3f5c6a0fbcf019bfee8bbbf138218d077fab1e68f85ff7bc4d13df664736f6c63430008000033","opcodes":"PUSH1 0x80 PUSH1 0x40 MSTORE CALLVALUE DUP1 ISZERO PUSH2 0x10 JUMPI PUSH1 0x0 DUP1 REVERT JUMPDEST POP PUSH2 0x49B DUP1 PUSH2 0x20 PUSH1 0x0 CODECOPY PUSH1 0x0 RETURN INVALID PUSH1 0x80 PUSH1 0x40 MSTORE CALLVALUE DUP1 ISZERO PUSH2 0x10 JUMPI PUSH1 0x0 DUP1 REVERT JUMPDEST POP PUSH1 0x4 CALLDATASIZE LT PUSH2 0x41 JUMPI PUSH1 0x0 CALLDATALOAD PUSH1 0xE0 SHR DUP1 PUSH4 0xA888C2CD EQ PUSH2 0x46 JUMPI DUP1 PUSH4 0xC0D7E2B6 EQ PUSH2 0x79 JUMPI DUP1 PUSH4 0xD2F51FEE EQ PUSH2 0x95 JUMPI JUMPDEST PUSH1 0x0 DUP1 REVERT JUMPDEST PUSH2 0x60 PUSH1 0x4 DUP1 CALLDATASIZE SUB DUP2 ADD SWAP1 PUSH2 0x5B SWAP2 SWAP1 PUSH2 0x28E JUMP JUMPDEST PUSH2 0xB1 JUMP JUMPDEST PUSH1 0x40 MLOAD PUSH2 0x70 SWAP5 SWAP4 SWAP3 SWAP2 SWAP1 PUSH2 0x38F JUMP JUMPDEST PUSH1 0x40 MLOAD DUP1 SWAP2 SUB SWAP1 RETURN JUMPDEST PUSH2 0x93 PUSH1 0x4 DUP1 CALLDATASIZE SUB DUP2 ADD SWAP1 PUSH2 0x8E SWAP2 SWAP1 PUSH2 0x28E JUMP JUMPDEST PUSH2 0x10E JUMP JUMPDEST STOP JUMPDEST PUSH2 0xAF PUSH1 0x4 DUP1 CALLDATASIZE SUB DUP2 ADD SWAP1 PUSH2 0xAA SWAP2 SWAP1 PUSH2 0x2B7 JUMP JUMPDEST PUSH2 0x196 JUMP JUMPDEST STOP JUMPDEST PUSH1 0x0 PUSH1 0x20 MSTORE DUP1 PUSH1 0x0 MSTORE PUSH1 0x40 PUSH1 0x0 KECCAK256 PUSH1 0x0 SWAP2 POP SWAP1 POP DUP1 PUSH1 0x0 ADD SLOAD SWAP1 DUP1 PUSH1 0x1 ADD PUSH1 0x0 SWAP1 SLOAD SWAP1 PUSH2 0x100 EXP SWAP1 DIV PUSH20 0xFFFFFFFFFFFFFFFFFFFFFFFFFFFFFFFFFFFFFFFF AND SWAP1 DUP1 PUSH1 0x2 ADD SLOAD SWAP1 DUP1 PUSH1 0x3 ADD PUSH1 0x0 SWAP1 SLOAD SWAP1 PUSH2 0x100 EXP SWAP1 DIV PUSH1 0xFF AND SWAP1 POP DUP5 JUMP JUMPDEST DUP1 PUSH1 0x0 DUP1 DUP4 DUP2 MSTORE PUSH1 0x20 ADD SWAP1 DUP2 MSTORE PUSH1 0x20 ADD PUSH1 0x0 KECCAK256 PUSH1 0x0 ADD SLOAD EQ PUSH2 0x165 JUMPI PUSH1 0x40 MLOAD PUSH32 0x8C379A000000000000000000000000000000000000000000000000000000000 DUP2 MSTORE PUSH1 0x4 ADD PUSH2 0x15C SWAP1 PUSH2 0x36F JUMP JUMPDEST PUSH1 0x40 MLOAD DUP1 SWAP2 SUB SWAP1 REVERT JUMPDEST PUSH1 0x1 PUSH1 0x0 DUP1 DUP4 DUP2 MSTORE PUSH1 0x20 ADD SWAP1 DUP2 MSTORE PUSH1 0x20 ADD PUSH1 0x0 KECCAK256 PUSH1 0x3 ADD PUSH1 0x0 PUSH2 0x100 EXP DUP2 SLOAD DUP2 PUSH1 0xFF MUL NOT AND SWAP1 DUP4 ISZERO ISZERO MUL OR SWAP1 SSTORE POP POP JUMP JUMPDEST PUSH1 0x40 MLOAD DUP1 PUSH1 0x80 ADD PUSH1 0x40 MSTORE DUP1 DUP4 DUP2 MSTORE PUSH1 0x20 ADD CALLER PUSH20 0xFFFFFFFFFFFFFFFFFFFFFFFFFFFFFFFFFFFFFFFF AND DUP2 MSTORE PUSH1 0x20 ADD DUP3 DUP2 MSTORE PUSH1 0x20 ADD PUSH1 0x0 ISZERO ISZERO DUP2 MSTORE POP PUSH1 0x0 DUP1 DUP5 DUP2 MSTORE PUSH1 0x20 ADD SWAP1 DUP2 MSTORE PUSH1 0x20 ADD PUSH1 0x0 KECCAK256 PUSH1 0x0 DUP3 ADD MLOAD DUP2 PUSH1 0x0 ADD SSTORE PUSH1 0x20 DUP3 ADD MLOAD DUP2 PUSH1 0x1 ADD PUSH1 0x0 PUSH2 0x100 EXP DUP2 SLOAD DUP2 PUSH20 0xFFFFFFFFFFFFFFFFFFFFFFFFFFFFFFFFFFFFFFFF MUL NOT AND SWAP1 DUP4 PUSH20 0xFFFFFFFFFFFFFFFFFFFFFFFFFFFFFFFFFFFFFFFF AND MUL OR SWAP1 SSTORE POP PUSH1 0x40 DUP3 ADD MLOAD DUP2 PUSH1 0x2 ADD SSTORE PUSH1 0x60 DUP3 ADD MLOAD DUP2 PUSH1 0x3 ADD PUSH1 0x0 PUSH2 0x100 EXP DUP2 SLOAD DUP2 PUSH1 0xFF MUL NOT AND SWAP1 DUP4 ISZERO ISZERO MUL OR SWAP1 SSTORE POP SWAP1 POP POP POP POP JUMP JUMPDEST PUSH1 0x0 DUP2 CALLDATALOAD SWAP1 POP PUSH2 0x273 DUP2 PUSH2 0x437 JUMP JUMPDEST SWAP3 SWAP2 POP POP JUMP JUMPDEST PUSH1 0x0 DUP2 CALLDATALOAD SWAP1 POP PUSH2 0x288 DUP2 PUSH2 0x44E JUMP JUMPDEST SWAP3 SWAP2 POP POP JUMP JUMPDEST PUSH1 0x0 PUSH1 0x20 DUP3 DUP5 SUB SLT ISZERO PUSH2 0x2A0 JUMPI PUSH1 0x0 DUP1 REVERT JUMPDEST PUSH1 0x0 PUSH2 0x2AE DUP5 DUP3 DUP6 ADD PUSH2 0x279 JUMP JUMPDEST SWAP2 POP POP SWAP3 SWAP2 POP POP JUMP JUMPDEST PUSH1 0x0 DUP1 PUSH1 0x40 DUP4 DUP6 SUB SLT ISZERO PUSH2 0x2CA JUMPI PUSH1 0x0 DUP1 REVERT JUMPDEST PUSH1 0x0 PUSH2 0x2D8 DUP6 DUP3 DUP7 ADD PUSH2 0x279 JUMP JUMPDEST SWAP3 POP POP PUSH1 0x20 PUSH2 0x2E9 DUP6 DUP3 DUP7 ADD PUSH2 0x264 JUMP JUMPDEST SWAP2 POP POP SWAP3 POP SWAP3 SWAP1 POP JUMP JUMPDEST PUSH2 0x2FC DUP2 PUSH2 0x3E5 JUMP JUMPDEST DUP3 MSTORE POP POP JUMP JUMPDEST PUSH2 0x30B DUP2 PUSH2 0x3F7 JUMP JUMPDEST DUP3 MSTORE POP POP JUMP JUMPDEST PUSH2 0x31A DUP2 PUSH2 0x403 JUMP JUMPDEST DUP3 MSTORE POP POP JUMP JUMPDEST PUSH1 0x0 PUSH2 0x32D PUSH1 0x15 DUP4 PUSH2 0x3D4 JUMP JUMPDEST SWAP2 POP PUSH32 0x436C61696D20646F6573206E6F742065786973742E0000000000000000000000 PUSH1 0x0 DUP4 ADD MSTORE PUSH1 0x20 DUP3 ADD SWAP1 POP SWAP2 SWAP1 POP JUMP JUMPDEST PUSH2 0x369 DUP2 PUSH2 0x42D JUMP JUMPDEST DUP3 MSTORE POP POP JUMP JUMPDEST PUSH1 0x0 PUSH1 0x20 DUP3 ADD SWAP1 POP DUP2 DUP2 SUB PUSH1 0x0 DUP4 ADD MSTORE PUSH2 0x388 DUP2 PUSH2 0x320 JUMP JUMPDEST SWAP1 POP SWAP2 SWAP1 POP JUMP JUMPDEST PUSH1 0x0 PUSH1 0x80 DUP3 ADD SWAP1 POP PUSH2 0x3A4 PUSH1 0x0 DUP4 ADD DUP8 PUSH2 0x360 JUMP JUMPDEST PUSH2 0x3B1 PUSH1 0x20 DUP4 ADD DUP7 PUSH2 0x2F3 JUMP JUMPDEST PUSH2 0x3BE PUSH1 0x40 DUP4 ADD DUP6 PUSH2 0x311 JUMP JUMPDEST PUSH2 0x3CB PUSH1 0x60 DUP4 ADD DUP5 PUSH2 0x302 JUMP JUMPDEST SWAP6 SWAP5 POP POP POP POP POP JUMP JUMPDEST PUSH1 0x0 DUP3 DUP3 MSTORE PUSH1 0x20 DUP3 ADD SWAP1 POP SWAP3 SWAP2 POP POP JUMP JUMPDEST PUSH1 0x0 PUSH2 0x3F0 DUP3 PUSH2 0x40D JUMP JUMPDEST SWAP1 POP SWAP2 SWAP1 POP JUMP JUMPDEST PUSH1 0x0 DUP2 ISZERO ISZERO SWAP1 POP SWAP2 SWAP1 POP JUMP JUMPDEST PUSH1 0x0 DUP2 SWAP1 POP SWAP2 SWAP1 POP JUMP JUMPDEST PUSH1 0x0 PUSH20 0xFFFFFFFFFFFFFFFFFFFFFFFFFFFFFFFFFFFFFFFF DUP3 AND SWAP1 POP SWAP2 SWAP1 POP JUMP JUMPDEST PUSH1 0x0 DUP2 SWAP1 POP SWAP2 SWAP1 POP JUMP JUMPDEST PUSH2 0x440 DUP2 PUSH2 0x403 JUMP JUMPDEST DUP2 EQ PUSH2 0x44B JUMPI PUSH1 0x0 DUP1 REVERT JUMPDEST POP JUMP JUMPDEST PUSH2 0x457 DUP2 PUSH2 0x42D JUMP JUMPDEST DUP2 EQ PUSH2 0x462 JUMPI PUSH1 0x0 DUP1 REVERT JUMPDEST POP JUMP INVALID LOG2 PUSH5 0x6970667358 0x22 SLT KECCAK256 PUSH1 0xEF PUSH27 0x1DB3F5C6A0FBCF019BFEE8BBBF138218D077FAB1E68F85FF7BC4D1 RETURNDATASIZE 0xF6 PUSH5 0x736F6C6343 STOP ADDMOD STOP STOP CALLER "},"methodIdentifiers":{"addClaim(uint256,bytes32)":"d2f51fee","claims(uint256)":"a888c2cd","verifyClaim(uint256)":"c0d7e2b6"}}}}}