{
  "_format": "hh-sol-artifact-1",
  "contractName": "InsuranceClaim",
  "sourceName": "contracts/token.sol",
  "abi": [
    {
      "inputs": [
        {
          "internalType": "uint256",
          "name": "_id",
          "type": "uint256"
        },
        {
          "internalType": "bytes32",
          "name": "_documentHash",
          "type": "bytes32"
        }
      ],
      "name": "addClaim",
      "outputs": [],
      "stateMutability": "nonpayable",
      "type": "function"
    },
    {
      "inputs": [
        {
          "internalType": "uint256",
          "name": "",
          "type": "uint256"
        }
      ],
      "name": "claims",
      "outputs": [
        {
          "internalType": "uint256",
          "name": "id",
          "type": "uint256"
        },
        {
          "internalType": "address",
          "name": "claimant",
          "type": "address"
        },
        {
          "internalType": "bytes32",
          "name": "documentHash",
          "type": "bytes32"
        },
        {
          "internalType": "bool",
          "name": "isVerified",
          "type": "bool"
        }
      ],
      "stateMutability": "view",
      "type": "function"
    },
    {
      "inputs": [
        {
          "internalType": "uint256",
          "name": "_id",
          "type": "uint256"
        }
      ],
      "name": "verifyClaim",
      "outputs": [],
      "stateMutability": "nonpayable",
      "type": "function"
    }
  ],
  "bytecode": "0x608060405234801561001057600080fd5b5061049b806100206000396000f3fe608060405234801561001057600080fd5b50600436106100415760003560e01c8063a888c2cd14610046578063c0d7e2b614610079578063d2f51fee14610095575b600080fd5b610060600480360381019061005b919061028e565b6100b1565b604051610070949392919061038f565b60405180910390f35b610093600480360381019061008e919061028e565b61010e565b005b6100af60048036038101906100aa91906102b7565b610196565b005b60006020528060005260406000206000915090508060000154908060010160009054906101000a900473ffffffffffffffffffffffffffffffffffffffff16908060020154908060030160009054906101000a900460ff16905084565b806000808381526020019081526020016000206000015414610165576040517f08c379a000000000000000000000000000000000000000000000000000000000815260040161015c9061036f565b60405180910390fd5b600160008083815260200190815260200160002060030160006101000a81548160ff02191690831515021790555050565b60405180608001604052808381526020013373ffffffffffffffffffffffffffffffffffffffff168152602001828152602001600015158152506000808481526020019081526020016000206000820151816000015560208201518160010160006101000a81548173ffffffffffffffffffffffffffffffffffffffff021916908373ffffffffffffffffffffffffffffffffffffffff1602179055506040820151816002015560608201518160030160006101000a81548160ff0219169083151502179055509050505050565b60008135905061027381610437565b92915050565b6000813590506102888161044e565b92915050565b6000602082840312156102a057600080fd5b60006102ae84828501610279565b91505092915050565b600080604083850312156102ca57600080fd5b60006102d885828601610279565b92505060206102e985828601610264565b9150509250929050565b6102fc816103e5565b82525050565b61030b816103f7565b82525050565b61031a81610403565b82525050565b600061032d6015836103d4565b91507f436c61696d20646f6573206e6f742065786973742e00000000000000000000006000830152602082019050919050565b6103698161042d565b82525050565b6000602082019050818103600083015261038881610320565b9050919050565b60006080820190506103a46000830187610360565b6103b160208301866102f3565b6103be6040830185610311565b6103cb6060830184610302565b95945050505050565b600082825260208201905092915050565b60006103f08261040d565b9050919050565b60008115159050919050565b6000819050919050565b600073ffffffffffffffffffffffffffffffffffffffff82169050919050565b6000819050919050565b61044081610403565b811461044b57600080fd5b50565b6104578161042d565b811461046257600080fd5b5056fea264697066735822122060ef7a1db3f5c6a0fbcf019bfee8bbbf138218d077fab1e68f85ff7bc4d13df664736f6c63430008000033",
  "linkReferences": {},
  "deployedLinkReferences": {}
}